{
  "abi": [
    {
      "anonymous": false,
      "inputs": [
        {
          "indexed": false,
          "internalType": "string",
          "name": "message",
          "type": "string"
        }
      ],
      "name": "Log",
      "type": "event"
    },
    {
      "anonymous": false,
      "inputs": [
        {
          "indexed": false,
          "internalType": "string",
          "name": "message",
          "type": "string"
        },
        {
          "indexed": false,
          "internalType": "uint256",
          "name": "balance",
          "type": "uint256"
        }
      ],
      "name": "Log",
      "type": "event"
    },
    {
      "inputs": [],
      "name": "bankroll",
      "outputs": [],
      "stateMutability": "nonpayable",
      "type": "function"
    },
    {
      "inputs": [],
      "name": "getSolvers",
      "outputs": [
        {
          "internalType": "address[]",
          "name": "solvers",
          "type": "address[]"
        }
      ],
      "stateMutability": "view",
      "type": "function"
    },
    {
      "inputs": [],
      "name": "start",
      "outputs": [],
      "stateMutability": "nonpayable",
      "type": "function"
    }
  ],
  "bytecode": {
    "object": "0x6080604052600080546001600160a01b03199081167334950d5cb9a785262b01c795f9b986e9697767ec17909155600180549091167399bb517a6f36913246a2b3e1bc34da773355745617905534801561005857600080fd5b50610862806100686000396000f3fe608060405234801561001057600080fd5b50600436106100415760003560e01c80630c657eb0146100465780638bc1e8eb14610050578063be9a65551461006e575b600080fd5b61004e610076565b005b6100586103d2565b6040516100659190610657565b60405180910390f35b61004e610458565b60008051602061080d8339815191526040516100d59060208082526029908201527f41747461636b65723a3a62616e6b726f6c6c28292352657175657374696e6720604082015268233630b9b42637b0b760b91b606082015260800190565b60405180910390a1600054600154604051636c665a5560e01b60208201526bffffffffffffffffffffffff19606092831b811660248301526005603883018190523090931b16605882015290916001600160a01b031690606c0160408051601f1981840301815290829052610149916106a4565b6000604051808303816000865af19150503d8060008114610186576040519150601f19603f3d011682016040523d82523d6000602084013e61018b565b606091505b50506001546040516370a0823160e01b81523060048201527fdd970dd9b5bfe707922155b058a407655cb18288b807e2216442bca8ad83d6b592506001600160a01b03909116906370a0823190602401602060405180830381865afa1580156101f8573d6000803e3d6000fd5b505050506040513d601f19601f8201168201806040525081019061021c91906106d3565b60405161028991906040808252603b908201527f41747461636b65723a3a62616e6b726f6c6c282923466c6173684c6f616e207260608201527f656365697665642e20446f76655f62616c616e636528746869732900000000006080820152602081019190915260a00190565b60405180910390a160008051602061080d8339815191526040516102ee9060208082526027908201527f41747461636b65723a3a62616e6b726f6c6c2829235265706179696e6720466c60408201526630b9b42637b0b760c91b606082015260800190565b60405180910390a160015460405163a9059cbb60e01b8152336004820152602481018390526001600160a01b039091169063a9059cbb906044016020604051808303816000875af1158015610347573d6000803e3d6000fd5b505050506040513d601f19601f8201168201806040525081019061036b91906106ec565b5060008051602061080d8339815191526040516103c79060208082526025908201527f41747461636b65723a3a62616e6b726f6c6c282923466c6173684c6f616e2052604082015264195c185a5960da1b606082015260800190565b60405180910390a150565b6000805460405163e3b0640160e01b81526060929182916001600160a01b0390911690600401600060405180830381855afa9150503d8060008114610433576040519150601f19603f3d011682016040523d82523d6000602084013e610438565b606091505b5091509150808060200190518101906104519190610747565b9250505090565b604080518181526012818301527141747461636b65723a3a737461727428292360701b606082015242602082015290517fdd970dd9b5bfe707922155b058a407655cb18288b807e2216442bca8ad83d6b59181900360800190a1600080546040805163dfab6ef960e01b815290516001600160a01b039092169263dfab6ef99260048084019382900301818387803b1580156104f357600080fd5b505af1158015610507573d6000803e3d6000fd5b5050505060008051602061080d8339815191526040516105639060208082526022908201527f41747461636b65723a3a73746172742829232073746172744c6f616e20656e64604082015261195960f21b606082015260800190565b60405180910390a16001546040516370a0823160e01b81523060048201527fdd970dd9b5bfe707922155b058a407655cb18288b807e2216442bca8ad83d6b5916001600160a01b0316906370a0823190602401602060405180830381865afa1580156105d3573d6000803e3d6000fd5b505050506040513d601f19601f820116820180604052508101906105f791906106d3565b60405161064d919060408082526026908201527f41747461636b65723a3a737461727428292320446f76655f62616c616e63656f60608201526566207468697360d01b6080820152602081019190915260a00190565b60405180910390a1565b6020808252825182820181905260009190848201906040850190845b818110156106985783516001600160a01b031683529284019291840191600101610673565b50909695505050505050565b6000825160005b818110156106c557602081860181015185830152016106ab565b506000920191825250919050565b6000602082840312156106e557600080fd5b5051919050565b6000602082840312156106fe57600080fd5b8151801515811461070e57600080fd5b9392505050565b634e487b7160e01b600052604160045260246000fd5b80516001600160a01b038116811461074257600080fd5b919050565b6000602080838503121561075a57600080fd5b825167ffffffffffffffff8082111561077257600080fd5b818501915085601f83011261078657600080fd5b81518181111561079857610798610715565b8060051b604051601f19603f830116810181811085821117156107bd576107bd610715565b6040529182528482019250838101850191888311156107db57600080fd5b938501935b82851015610800576107f18561072b565b845293850193928501926107e0565b9897505050505050505056fecf34ef537ac33ee1ac626ca1587a0a7e8e51561e5514f8cb36afa1c5102b3baba26469706673582212205442d3e7572e924cc8388e806c8c1eb3d81bdef4c2c24b334c98c48cb0764ae464736f6c63430008110033",
    "linkReferences": {}
  },
  "methodIdentifiers": {
    "bankroll()": "0c657eb0",
    "getSolvers()": "8bc1e8eb",
    "start()": "be9a6555"
  },
  "id": 14
}